:020000040000FA
:060000000A128A110E280D
:10000800FE00030EF7000408F8000A08F9000A12B7
:100018008A1138290A128A11112883133030FD00F9
:100028000130FE00A630FF00203084000A128A1139
:100038009921FA01FB01FC01FD0183010A128A11D1
:100048005C2983160313880183120313880183161E
:1000580003130711071083120313071107106428ED
:100068008F30831603138F059C28831603130F08FC
:100078008F3910386228831603130F088F392038F8
:100088006228831603130F088F39303862288316C5
:1000980003130F088F3940386228831603130F089B
:1000A8008F39503862285D287030831603138F0407
:1000B8009C28831603130F088F3960388F009C28FB
:1000C8003108003A03197828013A03198328023ABB
:1000D80003198828043A03198D28083A0319922825
:1000E800103A031997285D2830081F3A0319342855
:1000F800623A03193928873A03193F285D283008DE
:10010800F43A031945285D283008E83A03194B28C2
:100118005D283008D03A031951285D283008A03AE4
:10012800031957285D283008403A031958285D28D4
:100138008112011281110108F839023881000B116E
:100148008B1608007D03031DC4287C08031DC428E2
:10015800831203130618C4285A3083120313B100FC
:100168009A30B000B00BB628B10BB6280000831245
:1001780003130508013E8500FD01FC01FC0A8B15EF
:100188007C03031D080083120313061C08005A3061
:1001980083120313B1009A30B000B00BD128B10B11
:1001A800D1280000FC0108007D03031DF6287B0808
:1001B800031DF628831203130619F6285A308312F2
:1001C8000313B1009A30B000B00BE828B10BE8284F
:1001D8000000831203130508FF3E8500FD01FB01A3
:1001E800FB0A8B157B03031D080083120313061DEE
:1001F80008005A3083120313B1009A30B000B00BD4
:100208000329B10B03290000FB010800F40027298A
:100218008312031307107408203E84008313000818
:100228008800071508008312031307117008203E81
:10023800840083130008880007140800831203133E
:100248000808880008007108F200F3017308003AF2
:1002580003192F2922297208003A03190C29FF3A99
:1002680003191729222908000B1C41290B107D08A6
:10027800031D4129FD01FD0A8B110B1D5329FA09A4
:100288000630F5007508F0007A08F6007608F100E7
:1002980009300A128A110A210A128A110B117908E7
:1002A8008A0078088400770E8300FE0E7E0E09000F
:1002B8000A128A1179210A128A11A03083120313B3
:1002C800B0000F30B1000A128A1125200A128A11D3
:1002D8008B170B100A128A11A6200A128A110A1209
:1002E8008A11D8200A128A116E29FF308316031347
:1002F8008800FF30870085010530860083120313CC
:100308008501860187018801831603178801890101
:1003180005308316031395008113053096008B155D
:1003280008007E088A007F08820095210A128A1137
:100338008000840A04087D0603190034FF0A0319A3
:10034800FE0A99293F3406345B344F3466346D34E1
:100358007D3407347F346F3477347C3439345E34F9
:04036800793471343F
:04400E00D4E0FFFFFC
:00000001FF
