:020000040000FA
:060000000A128A11C22F52
:100F08003F340034063400345B3400344F3400344A
:100F1800663400340A128A11AB2776088312031349
:100F28008800053087000A128A1100287E088A0086
:100F38007F0882009A270A128A118000840A04080E
:100F48007D0603190034FF0A0319FE0A9E2F831633
:100F58000313880187018501073086008312031374
:100F68008501860187018801831603178801890195
:100F78000530831603139500811308000A128A119D
:100F880084270A128A11F0000A128A1185270A1288
:100F98008A11F1000A128A1186270A128A11F200B0
:100FA8000A128A1187270A128A11F3000A128A1173
:100FB80088270A128A11F4000A128A1189270A124C
:100FC8008A11F5000A128A118A270A128A11F60074
:100FD8000A128A118B270A128A11F7000A128A113B
:100FE8008C270A128A11F8000A128A118D27F90033
:080FF80083010A128A118E2FF9
:04400E00D4E0FFFFFC
:00000001FF
