:020000040000FA
:060000000A128A110E280D
:10000800FE00030EF7000408F8000A08F9000A12B7
:100018008A11F9290A128A11112883133130FD0037
:100028000330FE001130FF00203084000A128A11CC
:100038002623B901BA01BB01FA01FB01FC01FD014C
:1000480083010A128A11972983120313B5003C28E9
:100058003F309F055B2837281F083F3980383A28EA
:10006800C0309F045B281F083F3940389F005B2839
:100078003508B300B4013408003A03194428372876
:100088003308013A03192C28053A03192F280C3A8A
:10009800031930281C3A031934283728572883169F
:1000A80003139F17C628831603139F13C628320805
:1000B800B300B4013408003A0319632857283308F9
:1000C800483A03195228043A031953285728831623
:1000D80003130514831603170814C330831203137C
:1000E8009F05EA28831603138514831603178814BB
:1000F800831203131F08C3390438C4288316031353
:100108000515831603170815831203131F08C3392F
:100118000838C42883160313851583160317881512
:100128009B28831603138516831603170816831254
:1001380003131F08C3390C38C42883160313091482
:10014800831603178816831203131F08C33914383C
:10015800C4288316031389148316031708178312F8
:1001680003131F08C3391838C42883160313091545
:10017800831603178817831203131F08C3391C3803
:100188009F00EA28831203133108B300B40134082E
:10019800003A0319D028EA283308003A03196B28D3
:1001A800013A03197628033A03198228013A0319F8
:1001B8008E28073A03199528013A0319A128033A0A
:1001C8000319AD28013A0319B928EA281F140C139A
:1001D800831603130C170B17273083120313B4006D
:1001E800F430B300B30BF628B40BF62800008312E2
:1001F80003139F1408008316031388018312031343
:1002080088018316031307110710831203130711BC
:10021800071053298F30831603138F058B298316F4
:1002280003130F088F3910385129831603130F0849
:100238008F3920385129831603130F088F39303826
:100248005129831603130F088F3940385129831613
:1002580003130F088F3950385129831603130F08D9
:100268008F3960388F000108F83906388100B130BD
:1002780046297030831603138F040108F8390638AD
:100288008100623083120313B3003308B0008B2956
:10029800831603130F088F3960388F008B293208B3
:1002A800003A03196729013A03197229023A031916
:1002B8007729043A03197C29083A03198129103A45
:1002C800031986294C2931081F3A03190E29623A65
:1002D80003191329873A031919294C293108F43AC3
:1002E80003191F294C293108E83A031925294C29F3
:1002F8003108D03A03192B294C293108A03A03199F
:1003080031294C293108403A03193D294C298316D3
:100318000313811201128111831203133008810023
:100328000B118B1608000A128A11DE220A128A1192
:10033800403083120313B1001F30B2000A128A1131
:10034800FF200A128A11053083120313B6003608FB
:10035800B1004830B7003708B20008300A128A11D5
:1003680028200A128A118B17831203133B03031DDB
:10037800EE290930B6003608B90048300A128A1149
:10038800BD220A128A1183120313B6003608B80078
:10039800380805020318D2298914D6293808050215
:1003A8000318891038080F39B6003608B90038081C
:1003B800B60004300310B60CFF3E031DDE293608D4
:1003C8000F39B7003708BA00BB010A128A11FC229C
:1003D8000A128A110A128A112D220A128A110A1285
:1003E8008A115F220A128A11B829831203130C1F7B
:1003F800062A831603130C1F062A0C1383120313F1
:10040800BB01BB0A0B188B1D102A0B107D08031D9E
:10041800102AFD01FD0A8B110B198B1E242AFA09DB
:1004280083123A08F5007508F0007A08F600760895
:10043800F10039080A128A1191220A128A110B1145
:1004480079088A0078088400770E8300FE0E7E0EF5
:1004580009007D03031D4B2A7C08031D4B2A8312C8
:10046800031306184B2A5A3083120313B2009A302A
:10047800B100B10B3D2AB20B3D2A000083120313D1
:100488000508013E8500FD01FC01FC0A8B157C0373
:10049800031D080083120313061C08005A30831238
:1004A8000313B2009A30B100B10B582AB20B582A84
:1004B8000000FC0108007D03031D7D2A7B08031D45
:1004C8007D2A8312031306197D2A5A3083120313D7
:1004D800B2009A30B100B10B6F2AB20B6F2A00003C
:1004E800831203130508FF3E8500FD01FB01FB0A8B
:1004F8008B157B03031D080083120313061D0800D8
:100508005A3083120313B2009A30B100B10B8A2A11
:10051800B20B8A2A0000FB010800F40083120313BF
:1005280030088100AC2A07107408203E8400831329
:10053800000888000715080007117008203E84008D
:1005480083130008880007140800080888000800BA
:100558007108F200F3017308003A0319B42AA92AB2
:100568007208003A0319972AFF3A0319A02AA92A00
:10057800080083120313B300CC2A1E08C82A831666
:1005880003131E0883120313B1003108B400DC2AD8
:100598003308B100B2013208003A0319D42AC12A3B
:1005A8003108483A0319C12A043A0319C32AC12A4F
:1005B80034080800FF30831603138800FF308700D3
:1005C800850105308600890183120313890185019D
:1005D8008601870188018316031788018901053080
:1005E8008316031395008113053096008B150800B8
:1005F800831203130C13831603130C171A30831278
:100608000313B200F730B100B10B082BB20B082B63
:100618000D2B831203139F1408003F3406345B34F8
:100628004F3466346D347D3407347F346F34773417
:100638007C3439345E347934713483347E088A00EA
:100648007F08820022230A128A118000840A040883
:0E0658007D0603190034FF0A0319FE0A262B43
:04400E00D4E0FFFFFC
:00000001FF
