:020000040000FA
:060000000A128A110C280F
:10000800FE00030EF1000A08F2000A128A115028B5
:100018000A128A110F28F50183010A128A1114287D
:100028000A128A116B200A128A118B170B103D28AD
:10003800C330F400CD30F300F30B2028F40B202854
:10004800831203130508013E3528C330F400CD3070
:10005800F300F30B2D28F40B2D2883120313050846
:10006800FF3E8500F5018B153D2883120313050813
:1000780085007508F300F4017408003A031945284F
:1000880039287308013A03191C28033A0319292847
:1000980039280A128A110C280B1C64287508031DBC
:1000A80063288312031306185C28F501F50A6228F1
:1000B800061963280230F0007008F5008B110B1048
:1000C80072088A00710E8300FE0E7E0E09008316E8
:1000D8000313880187018501053086008312031305
:1000E8008501860187018801831603178801890124
:1000F80005308316031395008113053096008B1580
:020108000800ED
:04400E00D4E0FFFFFC
:00000001FF
