:020000040000FA
:060000000A128A110C280F
:10000800FE00030EF0000A08F1000A128A119A286D
:100018000A128A110F28F401F501F60183010A1268
:100028008A1188287603031D31287508031D312895
:1000380083120313061831285A30F3009B30F2005C
:10004800F20B2428F30B2428831203130508013E1E
:100058008500F601F501F50A8B157503031D0800E7
:1000680083120313061C08005A30F3009B30F20079
:10007800F20B3C28F30B3C28F50108007603031D1E
:100088005D287408031D5D288312031306195D2873
:100098005A30F3009B30F200F20B5028F30B502833
:1000A800831203130508FF3E8500F601F401F40AE4
:1000B8008B157403031D080083120313061D080023
:1000C8005A30F3009B30F200F20B6828F30B6828D3
:1000D800F4010800831603138801870185010530A0
:1000E8008600831203138501860187018801831620
:1000F80003178801890105308316031395008113BE
:10010800053096008B1508000A128A116E200A1213
:100118008A118B170B100A128A1116200A128A11DB
:100128000A128A1142200A128A118F280B1CA3284E
:100138000B107608031DA328F601F60A8B11710827
:0C0148008A00700E8300FE0E7E0E09007F
:04400E00D4E0FFFFFC
:00000001FF
